:020000020000FC
:100000005DC00F931F9300E0FF93EF930F93E00FFA
:1000100000E0F01F14910F91EF91FF91103021F04B
:100020000E9427000395F0CF1F910F91089511E0D2
:100030001093C50010EA1093C4001EE01093C20094
:1000400018E11093C10012E21093C00008950F93BD
:100050000091C00005FFFCCF1093C6000F910895DA
:100060000F930091C00033953730E9F731E02395C5
:100070002730C9F721E007FFF4CF1091C6000F9198
:10008000089521E031E012C00F930091C00005FFF8
:10009000FCCF2093C6000F9108950F930091C000EC
:1000A00005FFFCCF3093C6000F9108950F93D8CF72
:1000B0001B3211F40E9473000F91D6CF0E941700DB
:1000C000FF93EF93F1E0E0E10E940100EF91FF91D7
:1000D000FF93EF93F1E0E2E20E940100EF91FF91C4
:1000E0000E944100FDCFFF93EF93F1E0E8E40E940E
:1000F0000100EF91FF910E944400FF93EF93F1E024
:10010000E0E60E940100EF91FF910E944D00E0CFD8
:100110000A53656A612062656D2D76696E646F2190
:1001200000000A44696769746520272B27207061E5
:100130007261207265616C697A6172206F20736FE1
:10014000727465696F2E0A000A526573756C74616A
:10015000646F3A0A4461646F2031203D200A000038
:0C0160000A4461646F2032203D200A0038
:00000001FF
