:020000020000FC
:1000000058C00F931F9300E0FF93EF930F93E00FFF
:1000100000E0F01F14910F91EF91FF91103021F04B
:100020000E9427000395F0CF1F910F91089511E0D2
:100030001093C50010EA1093C4001EE01093C20094
:1000400018E11093C10012E21093C00008950F93BD
:100050000091C00005FFFCCF1093C6000F910895DA
:100060000F930091C00007FF04C01091C6000F91CC
:10007000089533953733A9F731E32395273389F76B
:1000800021E3EFCF0F930091C00005FFFCCF209339
:10009000C6000F9108950F930091C00005FFFCCF9B
:1000A0003093C6000F9108950E9430001B32E1F793
:1000B00015C00E941700FF93EF93F1E0E6E00E9465
:1000C0000100EF91FF91FF93EF93F1E0E8E10E94CF
:1000D0000100EF91FF9121E331E3E6CFFF93EF932E
:1000E000F1E0EEE30E940100EF91FF910E944200D7
:1000F000FF93EF93F1E0E4E50E940100EF91FF919F
:100100000E944B00E0CF0A53656A612062656D2D45
:1001100076696E646F2100000A446967697465201E
:10012000272B272070617261207265616C697A618A
:1001300072206F20736F727465696F2E0A000A5205
:100140006573756C7461646F3A0A4461646F203141
:10015000203D20000A4461646F2032203D200000D1
:00000001FF
