S022000054444533202D2053697374656D6173206465204D65646963616F2E7372656381
S11300000C9434000C9449000C9449000C9449005D
S11300100C9449000C9449000C9449000C94490038
S11300200C9449000C9449000C9449000C94490028
S11300300C9449000C9449000C9449000C94490018
S11300400C9449000C9449000C9449000C94490008
S11300500C9449000C9449000C9449000C944900F8
S11300600C9449000C94490011241FBECFEFD8E032
S1130070DEBFCDBF11E0A0E0B1E0EAEEFCE002C0DB
S113008005900D92AE3AB107D9F70E9418010C946D
S113009073060C9400001092C50082E28093C400A1
S11300A096E09093C20098E19093C1008093C000C1
S11300B008959091C00095FFFCCF8093C6000895E9
S11300C00F931F93CF93DF938C01C0E0D0E007C060
S11300D0F801EC0FFD1F80810E9459002196F80160
S11300E001900020E9F73197E01BF10BCE17DF07F1
S11300F078F3DF91CF911F910F9108958F929F9282
S1130100AF92BF92CF92DF92EF92FF920F931F9321
S1130110CF93DF93CDB7DEB764970FB6F894DEBF05
S11301200FBECDBF4B015C010E9458026B017C01E4
S1130130072E000C880B990B0E9490029B01AC01C6
S1130140C501B4010E94790120E030E048EC52E49A
S11301500E941C030E9458027F936F93DF92CF92F8
S113016080E091E09F938F938E010F5F1F4F1F9349
S11301700F930E948903C8010E9460000FB6F8948F
S1130180DEBF0FBECDBF64960FB6F894DEBF0FBEC0
S1130190CDBFDF91CF911F910F91FF90EF90DF9032
S11301A0CF90BF90AF909F908F9008958091C000A2
S11301B08823E4F78091C600089587E880937A0045
S11301C0089580EC80937C0085E38A95F1F7000024
S11301D0EAE7F0E080818064808380917A0086FD84
S11301E0FCCF8091780090917900089581E4809308
S11301F07C0085E38A95F1F70000EAE7F0E080816E
S11302008064808380917A0086FDFCCF80917800A1
S113021090917900089588E091E00E94600080E266
S113022091E00E9460008FE391E00E9460000895D5
S11302300E944B000E94DD000E940B010E94D60028
S1130240813351F50E94E100BC0180E090E00E94FE
S11302508E022DEC3CEC4CE85FE30E941C0320E092
S113026030EC4FE754E40E94E6012AE037ED43E224
S11302705CE30E94E6016B017C0181E691E00E944F
S11302806000C701B6010E947E0080E791E00E94F1
S113029060000E940B01D2CF823321F50E94F60048
S11302A0BC0180E090E00E948E0220E030E040EA51
S11302B050E40E941C0320E030EC4FE754E40E9419
S11302C0E6016B017C0184E791E00E946000C701B4
S11302D0B6010E947E008EE791E00E9460000E94B9
S11302E00B01ACCF82E891E00E9460000E940B01F8
S11302F0A5CF5058BB27AA270E9491010C94E20273
S11303000E94D40238F00E94DB0220F039F49F3FAF
S113031019F426F40C94D1020EF4E095E7FB0C9446
S1130320CB02E92F0E94F30258F3BA17620773074E
S11303308407950720F079F4A6F50C9415030EF4C0
S1130340E0950B2EBA2FA02D0B01B90190010C01E1
S1130350CA01A0011124FF27591B99F0593F50F4F9
S1130360503E68F11A16F040A22F232F342F442751
S1130370585FF3CF469537952795A795F040539549
S1130380C9F77EF41F16BA0B620B730B840BBAF019
S11303909150A1F0FF0FBB1F661F771F881FC2F784
S11303A00EC0BA0F621F731F841F48F48795779598
S11303B06795B795F7959E3F08F0B0CF9395880F52
S11303C008F09927EE0F9795879508950E94FA01F2
S11303D00C94E2020E94DB0258F00E94D40240F026
S11303E029F45F3F29F00C94CB0251110C941603AD
S11303F00C94D1020E94F30268F39923B1F35523BC
S113040091F3951B550BBB27AA2762177307840723
S113041038F09F5F5F4F220F331F441FAA1FA9F3B9
S113042035D00E2E3AF0E0E832D091505040E695A7
S1130430001CCAF72BD0FE2F29D0660F771F881F08
S1130440BB1F261737074807AB07B0E809F0BB0BFB
S1130450802DBF01FF2793585F4F3AF09E3F51050F
S113046078F00C94CB020C9416035F3FE4F3983EAF
S1130470D4F3869577956795B795F7959F5FC9F7F8
S1130480880F911D9695879597F90895E1E0660F79
S1130490771F881FBB1F621773078407BA0720F0F2
S11304A0621B730B840BBA0BEE1F88F7E09508955B
S11304B00E945F026894B1110C94160308950E947F
S11304C0FB0288F09F5798F0B92F9927B751B0F0E5
S11304D0E1F0660F771F881F991F1AF0BA95C9F7C4
S11304E014C0B13091F00E941503B1E008950C944A
S11304F01503672F782F8827B85F39F0B93FCCF3FD
S1130500869577956795B395D9F73EF49095809540
S1130510709561957F4F8F4F9F4F0895E89409C060
S113052097FB3EF490958095709561957F4F8F4F22
S11305309F4F9923A9F0F92F96E9BB279395F69538
S1130540879577956795B795F111F8CFFAF4BB0FB6
S113055011F460FF1BC06F5F7F4F8F4F9F4F16C01A
S1130560882311F096E911C0772321F09EE8872FA4
S1130570762F05C0662371F096E8862F70E060E060
S11305802AF09A95660F771F881FDAF7880F9695D9
S1130590879597F9089597F99F6780E870E060E080
S11305A008959FEF80EC089500240A941616170608
S11305B018060906089500240A9412161306140650
S11305C005060895092E0394000C11F4882352F0B3
S11305D0BB0F40F4BF2B11F460FF04C06F5F7F4F6B
S11305E08F4F9F4F089557FD9058440F551F59F052
S11305F05F3F71F04795880F97FB991F61F09F3F0C
S113060079F087950895121613061406551FF2CF34
S11306104695F1DF08C0161617061806991FF1CF84
S113062086957105610508940895E894BB276627AB
S11306307727CB0197F908950E942F030C94E202C7
S11306400E94D40238F00E94DB0220F0952311F0BE
S11306500C94CB020C94D10211240C9416030E9426
S1130660F30270F3959FC1F3950F50E0551F629FFD
S1130670F001729FBB27F00DB11D639FAA27F00DF7
S1130680B11DAA1F649F6627B00DA11D661F829F1E
S11306902227B00DA11D621F739FB00DA11D621F03
S11306A0839FA00D611D221F749F3327A00D611D20
S11306B0231F849F600D211D822F762F6A2F112402
S11306C09F5750409AF0F1F088234AF0EE0FFF1F35
S11306D0BB1F661F771F881F91505040A9F79E3F8C
S11306E0510580F00C94CB020C9416035F3FE4F3A5
S11306F0983ED4F3869577956795B795F795E795E2
S11307009F5FC1F7FE2B880F911D9695879597F9EA
S11307100895AEE0B0E0EFE8F3E00C944A060D89EA
S11307201E8986E08C831A8309838FEF9FE79E835B
S11307308D83AE01475E5F4F6F89788DCE01019640
S11307400E94AB03EF81F885E00FF11F10822E9613
S1130750E4E00C946606ABE0B0E0E1EBF3E00C946B
S11307603C066C017B018A01FC011782168283819D
S113077081FFCCC1CE0101963C01F6019381F701C2
S113078093FD859193FF81917F01882309F4BAC178
S1130790853239F493FD859193FF81917F018532F0
S11307A029F4B60190E00E94A205E7CF912C212CF8
S11307B0312CFFE1F315D8F08B3279F038F4803224
S11307C079F08332A1F4232D20611DC08D3261F0B4
S11307D0803369F4232D216016C0832D8260382E66
S11307E0E32DE4603E2E2AC0F32DF8601DC037FCD3
S11307F02DC020ED280F2A3040F08E32B9F436FC9B
S113080081C1232D2064322E19C036FE06C08AE031
S1130810989E200D1124922E11C0EAE02E9E200DE8
S11308201124222EF32DF0623F2E08C08C3621F4C1
S1130830832D8068382E02C0883641F4F70193FD79
S1130840859193FF81917F018111B3CF982F9F7D73
S11308509554933028F40C5F1F4F9FE399830DC088
S1130860833631F0833771F0833509F059C021C0E4
S1130870F801808189830E5F1F4F88248394912C13
S1130880530113C02801F2E04F0E511CF801A0805F
S1130890B18036FE03C0692D70E002C06FEF7FEFB8
S11308A0C5010E9497054C018201F32DFF773F2E6D
S11308B016C0280122E0420E511CF801A080B1802C
S11308C036FE03C0692D70E002C06FEF7FEFC501F3
S11308D00E948C054C01F32DF0683F2E820133FCFD
S11308E01BC0822D90E088169906B0F4B60180E210
S11308F090E00E94A2052A94F4CFF50137FC85917B
S113090037FE81915F01B60190E00E94A20521109B
S11309102A9421E0821A91088114910471F7E8C0A5
S1130920843611F0893641F5F80137FE07C060813D
S11309307181828193810C5F1F4F08C06081718136
S1130940072E000C880B990B0E5F1F4FF32DFF76BB
S11309503F2E97FF09C090958095709561957F4FC4
S11309608F4F9F4FF0683F2E2AE030E0A3010E9492
S1130970DE05882E861845C0853731F4232D2F7E59
S1130980B22E2AE030E025C0932D997FB92E8F3600
S1130990C1F018F4883579F0B5C0803719F088377C
S11309A021F0B0C0E92FE061BE2EB4FE0DC0FB2DD6
S11309B0F460BF2E09C034FE0AC0292F2660B22E6F
S11309C006C028E030E005C020E130E002C020E1AC
S11309D032E0F801B7FE07C06081718182819381A2
S11309E00C5F1F4F06C06081718180E090E00E5F54
S11309F01F4FA3010E94DE05882E8618FB2DFF776A
S1130A003F2E36FE0DC0232D2E7FA22E891458F4BE
S1130A1034FE0BC032FC09C0832D8E7EA82E05C087
S1130A20B82CA32C03C0B82C01C0B92CA4FE0FC051
S1130A30FE01E80DF11D8081803321F49A2D997E09
S1130A40A92E09C0A2FE06C0B394B39404C08A2D93
S1130A50867809F0B394A3FC11C0A0FE06C0B214BA
S1130A6088F4280C922C9B180EC0B21460F4B601C2
S1130A7080E290E00E94A205B394F7CFB21418F478
S1130A802B1802C0982C212CA4FE10C0B60180E3C0
S1130A9090E00E94A205A2FE17C0A1FC03C088E753
S1130AA090E002C088E590E0B6010CC08A2D8678FB
S1130AB059F0A1FE02C08BE201C080E2A7FC8DE2E6
S1130AC0B60190E00E94A205891438F4B60180E3CF
S1130AD090E00E94A2059A94F7CF8A94F301E80D5E
S1130AE0F11D8081B60190E00E94A2058110F5CF2E
S1130AF0222009F442CEB60180E290E00E94A205D1
S1130B002A94F6CFF6018681978102C08FEF9FEF7A
S1130B102B96E2E10C945806FC010590615070405C
S1130B200110D8F7809590958E0F9F1F0895FC01B2
S1130B306150704001900110D8F7809590958E0F08
S1130B409F1F08950F931F93CF93DF93FB0123817E
S1130B5021FD03C08FEF9FEF2CC022FF16C04681FA
S1130B605781248135814217530744F4A081B18110
S1130B709D012F5F3F4F318320838C9326813781E2
S1130B802F5F3F4F3783268314C08B01EC01FB0199
S1130B900084F185E02D0995892BE1F6D80116969C
S1130BA08D919C911797019617969C938E93169707
S1130BB0CE01DF91CF911F910F910895FA01AA27D9
S1130BC0283051F1203181F1E8946F936E7F6E5F8C
S1130BD07F4F8F4F9F4FAF4FB1E03ED0B4E03CD03A
S1130BE0670F781F891F9A1FA11D680F791F8A1F1D
S1130BF0911DA11D6A0F711D811D911DA11D20D084
S1130C0009F468943F912AE0269F11243019305D3D
S1130C103193DEF6CF010895462F4770405D41932E
S1130C20B3E00FD0C9F7F6CF462F4F70405D4A337B
S1130C3018F0495D31FD4052419302D0A9F7EACF43
S1130C40B4E0A6959795879577956795BA95C9F772
S1130C5000976105710508959B01AC010A2E069465
S1130C605795479537952795BA95C9F7620F731F1E
S1130C70841F951FA01D08952F923F924F925F925B
S1130C806F927F928F929F92AF92BF92CF92DF9298
S1130C90EF92FF920F931F93CF93DF93CDB7DEB7FD
S1130CA0CA1BDB0B0FB6F894DEBF0FBECDBF099491
S1130CB02A88398848885F846E847D848C849B84E8
S1130CC0AA84B984C884DF80EE80FD800C811B81F6
S1130CD0AA81B981CE0FD11D0FB6F894DEBF0FBE25
S10D0CE0CDBFED010895F894FFCF95
S1130CEA25642E25303264000A53656C6563696F86
S1130CFA6E6520756D61206F7063616F3A200A001A
S1130D0A0A31202D204D656469722074656D706501
S1130D1A72617475726120284C4D3335290A003288
S1130D2A202D204D656469722074656E73616F208D
S1130D3A28506F74656E63696F6D6574726F290AE2
S1130D4A000A54656D70657261747572613A2000A7
S1130D5ABA430A000A54656E73E36F3A20002056B8
S1130D6A0A000A4572726F21204469676974652012
S1130D7A756D6120646173206F70E7F56573206493
S1110D8A6973706F6EED76656973210A00005F
S9030000FC
